:020000041000EA
:1000000000B5324B212058609868022188439860DF
:10001000D860186158612E4B002199600421596104
:100020000121F02299502B49196001219960352056
:1000300000F044F80222904214D00621196600F024
:1000400034F8196E01211966002018661A6600F04E
:100050002CF8196E196E196E052000F02FF8012189
:100060000842F9D1002199601B49196000215960AB
:100070001A491B48016001219960EB211966A021F2
:10008000196600F012F800219960164914480160C1
:100090000121996001BC002800D000471248134993
:1000A000086003C880F30888084703B5996A0420EC
:1000B0000142FBD001200142F8D103BD02B5186610
:1000C0001866FFF7F2FF186E186E02BD00000240BE
:1000D000000000180000070000035F00212200005C
:1000E000F4000018222000A00001001008ED00E03C
:1000F000000000000000000000000000070B8FD58A
:1001000000200420F7010010C3010010C5010010F9
:10011000C1010010C1010010C1010010C101001097
:10012000C1010010C1010010C1010010C701001081
:10013000C1010010C1010010C9010010CB01001065
:10014000CD010010CD010010CD010010CD01001037
:10015000CD010010CD010010CD010010CD01001027
:10016000CD010010CD010010CD010010CD01001017
:10017000CD010010CD010010CD010010CD01001007
:10018000CD010010CD010010CD010010CD010010F7
:10019000CD010010CD010010CD010010CD010010E7
:1001A000CD010010CD010010CD010010CD010010D7
:1001B000CD010010CD010010CD010010CD010010C7
:1001C00000BE00BE00BE00BE00BE00BEEFF3058054
:1001D000103800BEF2EB887188510010A851001051
:1001E0003402001090A31AE700201F49086006C8D7
:1001F00081F3088810471D48006800282FD10DA4FE
:100200000ECC002902D000F012F8F9E71849194A7B
:10021000002000E001C19142FCD1174988471749ED
:1002200088471749884700BEFDE701C901C29A42C5
:10023000FBD37047A8510010C0000020AC2E002056
:10024000947F00100000042000000420947F001020
:10025000001004200010042000000000704709482E
:1002600001F0E2FE0047000008ED00E0000000D0D1
:10027000B02E0020E43B0020A11E0010A1030010BE
:10028000951F00105756000006005250ABB3605344
:10029000644F001006005250861C0302844F001069
:1002A000060052505422A29D904F0010050052505B
:1002B000DE65F468947F0010F8B5C0460448054B2D
:1002C00010B5834203D0044B002B00D0984710BDDB
:1002D000AC2E0020AC2E002000000000064807498C
:1002E000091A8B10C90FC91810B5491003D0044B57
:1002F000002B00D0984710BDAC2E0020AC2E002063
:100300000000000010B5074C2378002B09D1FFF73F
:10031000D5FF054B002B02D0044800E000BF0123AD
:10032000237010BDB030002000000000104E0010FF
:10033000054B10B5002B03D00449054800E000BF71
:10034000FFF7CCFF10BDC04600000000B430002015
:10035000104E0010D0231B065A680121120703D546
:100360005B681B09194214D0D0231B065A6801216F
:10037000120703D45B681B0919420CD0D0231B065B
:100380005A680121120703D45B681B09194204D182
:1003900070473020FCE73120FAE73220F8E7C0460A
:1003A00010B5032090B0D02400F03AF908232406B9
:1003B00001220021A362032000F01AF9042000F0BA
:1003C0002FF91023012200210420A36200F010F96C
:1003D00004F07EFC04F06AF901200021404202F0A2
:1003E000FDFB002003F0ACF90028F5D0694640225F
:1003F000002003F0B5F969460200002003F026FA58
:10040000002003F0E7F9E7E77047C0467047C046B1
:100410007047C0467047C0467047C0467047C046E8
:10042000F0B5C64600B588B08C4602A998460B00C8
:100430000E4C170024CC24C31D000D4C45CC45C3E5
:10044000227860461A700B4B0722019301F008FFD7
:1004500029000C22380001F003FF0322404601A9C5
:1004600001F0FEFE08B080BCB846F0BD104E001092
:10047000184E0010312E3000074B10B51B780400C9
:100480000120002B00D110BD00233A2202212000C0
:1004900003F08AFC0020F6E7DF3B002010230B600E
:1004A000F133FF3313807047002B01D0002A01D0B5
:1004B00001207047014B01321A70F9E7DF3B002041
:1004C00010B51C00032909D049028918084A1800F0
:1004D0008918029A01F0C4FE029810BDFFF73AFF96
:1004E000044914224874200001F0BAFEF4E7C04623
:1004F000A40D0020900D0020080010B540028018C7
:10050000034A19008018029A01F0AAFE029810BD51
:10051000A40D002010B50A781C0000231E2A04D068
:100520002022052103F040FC2300180010BDC04626
:10053000004870475C4E001000487047704E001035
:1005400070B5002826D0052831D81A4B8000C6582F
:10055000300004F0CDFBC0B2011C1F2815D8C9B271
:10056000002821D00023144DAA1CF05C0133DCB21A
:1005700010800232A142F8D8C0230131C9B249002B
:100580009B0019432800298070BD1F21C9B2002893
:10059000E8D109E0084D074B02221968A81C01F0B8
:1005A0005FFEC1218900EDE70449034DEAE7002021
:1005B000EAE7C046A42D00202C32002002030000F0
:1005C000094A830094464022634410B51C68C00069
:1005D0006240C02414408022520113431C60034B2C
:1005E0009C466044416010BD04C001400040014091
:1005F0000A4B80009C4604236044002901D00C2350
:100600000821002A00D10B00026853400C221A4036
:1006100080235B01184302607047C04604C001405C
:100620000123D0228340120693629361094A83001A
:100630009446402263441968C0004A40C0211140DA
:100640008022520113431960034B9C4605236044EA
:100650004360704704C0014000400140024B1868ED
:100660008007C00F7047C04600C0064070B5EFF36A
:10067000108C72B60D4D2B68002BFCD0BFF35F8F32
:100680000724CB08C618C05C01230C40A3401C0003
:100690000440034207D103433370BFF35F8F2C60E4
:1006A0008CF3108870BD100001F078FC2C0100D094
:1006B000F8B54746CE46884680B5EFF3108C72B643
:1006C000214D2C68002CFCD0BFF35F8F9A422CD8B0
:1006D000D4080727055D061901241740BC402C42A9
:1006E0001FD007210127894609E0D408055D0619B6
:1006F0004C4639001440A1400C00294211D001326F
:100700009342F2D201204042BFF35F8F00220E4B92
:100710001A608CF3108800280FDBC0BCB946B046C5
:10072000F8BD2C4310003470EEE7BFF35F8F002359
:100730002B608CF31088012040424346002BECD004
:10074000089801F02BFCC0462C0100D00021044B7E
:10075000044ABFF35F8F02C39342FAD17047C04689
:10076000000100D0800100D0044A1078431CDBB2A5
:10077000172B00D9102313707047C046BC2D0020E2
:1007800000B5054B83B00100009318221F230348D6
:10079000FFF78EFF03B000BDD44E001028360020B6
:1007A00001238340002904D0034A1360034A1360E5
:1007B0007047034A1360FBE780E200E000E100E0DD
:1007C00080E100E0024B10309B688000C058704709
:1007D00000ED00E070B50D00EFF3108672B60F4A21
:1007E0001368002BFCD0BFF35F8F0D4B10309B685C
:1007F00084001B590B4A934203D09D4201D001F063
:10080000E5FB074B9B681D51BFF35F8FBFF35F8F05
:100810000022024B1A6086F3108870BD240100D0BC
:1008200000ED00E0CD010010F0B557464E46DE4623
:100830004546E0B585B0060002911700EFF3108B36
:1008400072B6674A1368002BFCD0BFF35F8F002598
:10085000644B5D579A46002D00DAA4E06B00624CB1
:1008600003935B199B009846A146C1444B465246F0
:100870009B79103613705D4BB2009B6801929958BA
:100880000B1B2F2B34D95A4B994200D0A4E0039B69
:10089000584A9C46584B6544AD0063534346023367
:1008A0006519E418554B0121043B1B1B1B055B0D0F
:1008B00013436B80524BEF71AB80FF23AB71029BF4
:1008C000AB604B460B431900484B019A9B6899500B
:1008D000BFF35F8FBFF35F8F0022414B1A608BF332
:1008E000108805B0F0BCBB46B246A946A046F0BD94
:1008F00001200A008243D379BB422FD845464E4699
:10090000130040491B1B5B415943090D3A4B63538C
:100910003A4B02356519043B5B1B1B05354D5B0DDE
:100920002B4373800426B446E0444444131F1B1B2E
:100930004C46A17102991B05A16049465B0D2B43F2
:10094000A380314BE77101431360BDE75800C01825
:1009500080002018C679BE422BD902000623D35648
:10096000002BF3DA101D8246284880460426764282
:10097000B446E14450464E46361A3005400D824694
:1009800056461C48957106439680039A94466544E2
:100990001D4AAD00641922604246A371029BA280E9
:1009A000E771A36090E701F011FB002553465D5706
:1009B00054E7101D82469088400500158446404645
:1009C000D444664604302018301AE0260005400D55
:1009D000360230438046C9E701F0F8FA57E7C046CF
:1009E000240100D0E03B0020C02D002000ED00E0FD
:1009F000CD01001000E0FFFF00A1FFFFF02D00205F
:100A000001BDFFFFAAAA00000148804701BD000008
:100A1000F0B5DE4657464E464546E0B50C0083B07D
:100A2000EFF3108972B6584A1368002BFCD0BFF35D
:100A30005F8F564B9A68030010339F00D559544A74
:100A40009046954232D0A54243D0524EAA1B2F2A3F
:100A50002CD801228240924651464F4A12681140DA
:100A6000019151464D4A1160BFF35F8FEFF305824C
:100A70009346002A33D101232A009A4393689C426B
:100A800008D177E04B005B189B00F3189968A142EE
:100A90002AD01A00062151560029F3DA019B002BB7
:100AA00019D052463E4B1A603B4B1A60374B9B683D
:100AB000DD51BFF35F8FBFF35F8F0022324B1A60AF
:100AC00089F3108803B0F0BCBB46B246A946A046E5
:100AD000F0BD1500EAE75246304B1A60E6E7934254
:100AE000C9D001F073FAC6E706215956002921DB67
:100AF0004A005018800034188046A0689860E07959
:100B0000D871062020569871002824DBA488F01A9A
:100B10006405241544440019E0240005400D240216
:100B20002043988052181F4B9200B6181A781970FB
:100B3000B271B3E7594600290FD1FF3191711A49BB
:100B4000918018490A789A71184A9B1B5B415A4355
:100B5000120D0A70A2E71648E3E7164A1649D21AA0
:100B6000083A5002400D01439980144952080A4343
:100B7000DA8093E70621515613000029B8DA5A4665
:100B8000002AEAD14546DCE7240100D000ED00E070
:100B9000CD010010C02D002000E100E080E100E068
:100BA00080E200E0E03B002001BDFFFFAAAA0000B8
:100BB00001BD0000FA2D002000F0FFFF00F8FFFF4C
:100BC00070B5EFF3058101240443EFF3108C72B686
:100BD000214A1368002BFCD0BFF35F8F1F4B050029
:100BE0001F4AED1A6D416A43120D1E4D8900AE6811
:100BF00052B27658A6421CD00621595691421CD0BA
:100C000012215956914222D01E215956914220D08C
:100C10002A2159560324914210D0134B19781A7087
:100C20008171BFF35F8F00220B4B1A608CF3108829
:100C300070BDAB680D4C5C50EFE7002461000919F2
:100C400089005B18FF21997109499980E5E7012422
:100C5000F4E70224F2E7C046240100D0C02D0020B2
:100C6000AAAA000000ED00E0E03B0020CD0100104A
:100C700001BDFFFF054B064A1360064A136053602F
:100C80009360D3601361536193617047808080806B
:100C900000E400E004E400E0024B9C46614489006B
:100CA000016070474000003410B50400FFF75CFDA0
:100CB00001002000FFF7F0FFFF232371BFF35F8FD8
:100CC00010BDC04610B50400FFF74EFD0100200026
:100CD000FFF7E2FFFF23A380BFF35F8F10BDC04685
:100CE00010B504000120FFF74BFD044B9C46604407
:100CF00080002060BFF35F8F10BDC046400000340D
:100D000083680B4810B584466144624409011201AE
:100D10009A18591854684B6801209C4201D802D097
:100D20000020C0B210BD12680B689A42F9D8F7E7EC
:100D3000FFFFFF0F0A4B1968EFF3108072B60A68C5
:100D4000002AFCD0BFF35F8F1B68BFF35F8F0022C8
:100D50001A6080F3108840BF002000217047C04611
:100D6000BC3B0020F8B557464E464546DE46E0B54A
:100D700099460CAB1C780DAB1B78060090469A4642
:100D80000768002C11D1BC7B002C42D065003B6869
:100D90002D19033D59194B78BB73002B00D1FB7300
:100DA00000238B704B700B7004E065003B682D19BD
:100DB000033D5919B2682A4B94464246E3181B0179
:100DC00063441A604A465A600A9A9A600B9ADA603B
:100DD00000238B704B700B707B7B9B46002B2BD0C2
:100DE00022005946B8687B6898473A68002816D0B0
:100DF0005B4658465B005B445519033BA870D1180D
:100E0000D35C002B00D06B705B460C707B73A345EA
:100E100013D0F0BCBB46B246A946A046F8BD5B461F
:100E20005B005B44033BD3189C705119525D002A50
:100E300000D05A705B460B707C7342464B46307D47
:100E400000F02EFB051E06D05346002B03D12100D7
:100E5000306800F049FD0E9B002BDAD01D70D8E7FA
:100E6000FFFFFF0FF0B5DE4657464E4645460023CE
:100E7000E0B58BB00893674B8200D45800239B46A3
:100E8000099000F093FA626806000F00EFF31085F6
:100E900072B61368002BFCD0BFF35F8F23689C46AB
:100EA0005B7B9946002B00D169E0A2685A4B9046C3
:100EB0004B441B01984443461A685B6810001900B4
:100EC000801BB941002900DC63E0099800F0E8FAD2
:100ED00000230022984600230692079300239A4697
:100EE0006368BFF35F8F5A461A6085F310885346D4
:100EF000002B08D10028C4D10BB0F0BCBB46B246D1
:100F0000A946A046F0BD089B414618024B4618432F
:100F1000D047626806000F00EFF3108572B61368C1
:100F2000002BFCD0BFF35F8F002F50DB33003B431F
:100F300002D02369002B61D12368D97B002907D017
:100F40004A00521819688C4649466244033A517067
:100F50009A7B002A01D14A469A734A46DA734B4675
:100F6000E168013BCA5C0132CA545B462361636895
:100F7000BFF35F8F5A461A6085F3108881E700231C
:100F800000229846002306920793002300209A46E9
:100F9000A6E7002902D1002800D096E7002160468C
:100FA00000F020FC43461A685B68069207934346AC
:100FB0009B689A464346DB689846E3684B44013B8E
:100FC0001B7808931B0203432361002088E72369F1
:100FD000002BB1D0069A079B921BBB41002B15DB5F
:100FE00059460491012103914946029141460191DC
:100FF000514620000091FFF7B5FEB6E700F0D6F9A4
:1010000032003B0012184B41002BE9DA0122034B5E
:101010005242E5E7A83A0020FFFFFF0FFFFFFF7FE6
:1010200010B5144C6368002B04D00A211248FFF756
:1010300033FE10BD2300114A1021206800F0ECFAA5
:10104000032000F0A7F9032000F094FA03200C49D4
:1010500000F0E0F9FFF788FB0A4B9C460323237559
:10106000D0231B061B6860446375074B80006060DB
:10107000DC60DAE7082E0020BC3B0020010D0010E8
:10108000650E001040000034A83A0020F0B54E462E
:101090004546DE465746E0B585B0019310AB1B7858
:1010A0000600039300239946984600927268EFF376
:1010B000108B72B61368002BFCD0BFF35F8F3568BE
:1010C000AC7B002C3DD067002B683F19033FDB1938
:1010D0005A78AA73002A00D1EA73B168474A8C464D
:1010E00000980199A21812016244106051600E9993
:1010F00091600F99D16042469A705A701A706B7B5A
:101100009A46002B67D022001900A8686B689847A0
:101110002A68002852D0534650465B005344D719E2
:10112000033BB870D118D35C002B00D07B705346C2
:101130000C706B7354454FD0F3681B19013B187842
:1011400000E000207368BFF35F8F42461A608BF3A4
:101150001088002C4FD04B46002B08D100022043B2
:1011600005B0F0BCBB46B246A946A046F0BD039B05
:10117000002B3ED00E9B00200F99984703000400DF
:101180000D000B4335D000290ADA009A019B121B8F
:10119000AB4100920193002B0ADB039B994685E744
:1011A00000F004F924184D4100940195002DF4DA63
:1011B0000123134C5B4200930194EEE753465B001E
:1011C0005344033BD3189C70D119D25D002A00D040
:1011D0005A7053460B706C73307D009A019B00F07F
:1011E0005FF981460028A7D02100306800F07CFB21
:1011F000A2E70020B4E701204042B1E7FFFFFF0F64
:10120000FFFFFF7FF0B5EFF30583CE46474680B57D
:1012100005000C0085B0002B12D02C4A0020536A28
:101220009C4203D8926A0130AA4204D305B0C0BCE4
:10123000B946B046F0BDE01A421E9041C0B2F5E793
:10124000234E02930193234B0200009330000B00C6
:10125000FFF71CFF031EE0DD20BF7168EFF310876E
:1012600072B60A68002AFCD0BFF35F8FDAB29446E8
:101270003068427B62451DD0FF221A4051008946EA
:1012800001689144884649464144033989780029D8
:1012900013D0F1681B0A88464244013A1278DBB247
:1012A0009A420FD07368BFF35F8F00221A6087F3F2
:1012B0001088B2E7FF221A40EBE732699342F1D17E
:1012C0003161EFE7614600F00FFBEBE700400540BE
:1012D000082E0020350D0010F0B5EFF30582D6463C
:1012E0004F4646461000C0B51038EFF3108872B66E
:1012F000214C2368002BFCD0BFF35F8F0123190022
:1013000081401E4D1F006963AA461D4D29601D4D79
:101310002E78AC463500C5402F402B4209D1BFF393
:101320005F8F276088F31088E0BCBA46B146A846B4
:10133000F0BD5346144D5F6A83005D59AF420ED332
:10134000124A8E439B5862461670BFF35F8F00228D
:10135000226088F31088002BE6D09847E4E70C4B16
:1013600092009C46624413681360BFF35F8F0023B2
:10137000236088F31088D7E7280100D0004005409B
:101380003C700540E13B0020C03B002010360020AF
:10139000D03F054010B50100024A0348FFF766F947
:1013A00010BDC046F04E0010DE3B0020034B596AD2
:1013B0000A00986A596A8A42FAD17047004005408B
:1013C00070B504000D00124A536A1900966A536AF8
:1013D0008B42FAD13000190024184D41AB4211D88C
:1013E0000ED02B000A494A6A9A42FCD307D1084A18
:1013F00002E0516A994202D1916AA142F9D370BDCB
:10140000A642EED9012301246442E5175B42E9E7D5
:101410000040054070B504000D00EFF3108672B671
:101420001A4A1368002BFCD0BFF35F8F002D1BD02E
:101430002000FFF7C7F9164981420AD02000FFF7C4
:10144000C9F901212000FFF7ABF90123A340114A9C
:101450001360114BA400E550BFF35F8F00220B4BCC
:101460001A6086F3108870BD0B4BA200D550012284
:10147000A2400A4920000B7893430B700449FFF700
:10148000C7FA00212000FFF78BF9E5E7280100D01B
:10149000D91200103860054010360020E13B0020D2
:1014A000F0B54F46D6464646C0B507002C4C616A9B
:1014B0000D00A66A616AA942FAD18B4208D805D00C
:1014C0000120E0BCBA46B146A846F0BDB242F7D909
:1014D000EFF3108A72B6234801680029FCD0BFF3ED
:1014E0005F8F0125BD4020491D4C884609788946FB
:1014F0002943C9B28C46414660460870391D1B48D5
:10150000890065630A51B9000B50216A0020294205
:1015100019D0616A0800A66A616A8142FAD18B42D9
:1015200019D801D1B24216D8CC4516D00C4B1F2089
:101530001D625D6301230740BB400D4A1E381360E6
:1015400043464A461A70BFF35F8F0022054B1A606C
:101550008AF31088B5E70020F5E70120F3E7C046DD
:1015600000400540280100D0E13B0020C03B0020A6
:1015700080E200E0EFF3108C72B60A490B68002B92
:10158000FCD0BFF35F8F01238340074A07481362F3
:1015900002789A430270BFF35F8F00230B608CF3D5
:1015A00010887047280100D000400540E13B002032
:1015B00070B5050014001600002915D00C00002A93
:1015C00012D080686B689847296800280ED0730095
:1015D0009B196200033B1219CB18033A9C708818C0
:1015E0008A5C002A15D10670200070BD63001B19AB
:1015F0007200033B9219CB18033A9E7088188A5CDC
:10160000002A02D104703400EEE75A7004703400EE
:10161000EAE75A700670E7E730B583600023CCB282
:1016200043730133047342608373C4730D00006815
:10163000012C06D9421C0133DBB2137003329C42E9
:10164000F9D1FF2129404B005918002340180338D5
:10165000437030BDF8B5CE46474606000C0080B555
:10166000002907D04D0003686D18033D5A195778BB
:10167000002F04D12000C0BCB946B046F8BD7900A7
:10168000C91903398846434459788946002159705D
:10169000517073683A0021008068984733680028C9
:1016A00014D042469A18947059195B5D002B00D0F3
:1016B00053700F70270049463000FFF7CBFF390009
:1016C00002003000FFF774FF0400D3E742464146B2
:1016D0005D19AF709A185B5C002B00D06B701470B2
:1016E000E9E7C046F0B557464546DE464E46E0B50A
:1016F0000D006B0001685B19DF1E0400C85D83B03C
:101700000192CA19002850D043001B18033BCB1884
:101710005E78B446002E1AD1019E002E42D0E67BA0
:10172000002E04D073009B19CB18033B5D70A37B84
:10173000002B00D1A573E57300282FD1002353702F
:1017400003B0F0BCBB46B246A946A046F0BD72004D
:101750006244033A89184A78904600224A709146BA
:101760005A70010032002000FFF722FF43468246F4
:10177000002B07D05B0021684344033BCB185A7809
:10178000002A16D1424651462000FFF711FF21687A
:10179000019BCA19002BC2D10028CFD043001B18CF
:1017A000033BCB1800219970C8E7019B002BB6D1F1
:1017B000C4E7500080180338091848788346484623
:1017C0004870587041462000FFF7F2FE59468046A7
:1017D0002000FFF73FFF414602002000FFF7E8FE30
:1017E0008046CFE7F0B557464546DE464E46E0B563
:1017F00083B00191457B04006B0000685B19DF1E1C
:10180000C15DC219002952D04B005B18033BC318BD
:101810005E78B446002E1CD1019E002E44D0E67B9B
:10182000002E04D073009B19C318033B5D70A37B8B
:10183000002B00D1A573E573002931D100232800C6
:101840005370617303B0F0BCBB46B246A946A046D4
:10185000F0BD72006244033A80184278904600223C
:10186000427091465A7020003200FFF7A1FE4346B5
:101870008246002B07D05B0021684344033BCB1812
:101880005A78002A17D1424651462000FFF790FEB1
:10189000019B01002068C219002BC0D10029CDD0C6
:1018A0004B005B18033BC31800209870C6E7019BF0
:1018B000002BB4D1C2E750008018033809184878CB
:1018C000834648464870587041462000FFF770FE36
:1018D000594680462000FFF7BDFE41460200200029
:1018E000FFF766FE8046CEE770B5040000292CD0D5
:1018F000437B8B422ED005684800401803382818D7
:101900008278002A21D053009B18033BEA5CEE1832
:101910008A4202D11BE0002A08D053009B18033BE7
:10192000EB185A788A42F6D142785A700023012285
:10193000837043702000FFF7D5FE617B020020001A
:10194000FFF736FE6073012000E0002070BD437891
:101950003370EBE701221900FFF7C4FE607301202A
:10196000F4E7C046F8B5CE464746040080B50620E9
:101970000E0000F023FA051E51D0524B5249E218D6
:1019800053425A418023DB039C4692054F4B6244ED
:101990001A604F4B1A6010008B689843FBD1494B7B
:1019A0008021E3185A4253414A4A5B004900995248
:1019B000062000F003FA3100C00000F067FBC30905
:1019C00032D14022012190466162A362256BEB0770
:1019D00036D427008026E36A00232C3776013E4365
:1019E00033600620256300F0E9F94146800000F0ED
:1019F0004DFB236B05009846DB073BD46022E36A6E
:101A00005A406E23134033604346236380231022E1
:101A10009B013B431A60304B23630323A3642800DC
:101A2000C0BCB946B046F8BD2C4A93423FD900230A
:101A30002B492C4A6162A362256B9046EB07C8D5FF
:101A40002200C02330329B011343234A06201A6030
:101A5000666AA26AB601B61800F0B0F9224900F031
:101A600015FBB6020100300000F010FB0021FFF76B
:101A7000A7FCAEE72200C02330329B011343164A75
:101A800006201A60636AA26A9B019946914400F09D
:101A900095F94B4614499B02994600F0F7FA01006C
:101AA000484600F0F3FA0021FFF78AFCA6E77F2200
:101AB0009901884610400130400819008044030015
:101AC00082E7C0460080FCBF00C0004000E000404C
:101AD00000F00040D03B002001030000FEFF0000AA
:101AE000FFFF0000C0FF3F004E0E000030B50C208D
:101AF00083B000F0B9F9FEF7B1FD00280ED0994B84
:101B0000994A1A605A609A60DA601A615A619A6159
:101B1000DA611A62954A5A6203B030BD944CA067EC
:101B200000F0AAF90122934B1A60636C012BFCD1DF
:101B30000322914B1A608E4A936B012BFCD1013327
:101B400001218E4A8E480093043300F03DF90523AD
:101B50008C4A009301218C4800F036F98B4B5A686F
:101B6000FF2A02D8802252005A6080227D4C824B8C
:101B700021691201854D1A60002907D0606900F0C3
:101B800085FA431C5800C0180338FDD2E0217F4B72
:101B900002201A681140802252012A4311601968FC
:101BA000484003210140116004219A681142FCD091
:101BB0008022802192012A43090111608022520073
:101BC0005A60734B2361734B5968FF2900D85A60E0
:101BD0000321684A6F4B116002399A681142FCD0A8
:101BE000E0201A681040802252011A4310601868E1
:101BF0004840032101400220116066498A68104272
:101C0000FCD0802292011343802212011A608022AC
:101C1000614B52004A606361604B5968FF2900D8EC
:101C20005A6080225E4BE16912015C4D1A60002906
:101C300007D0606900F02AFA431C5800C018033826
:101C4000FDD2E02255490B681A4080235B012B43EB
:101C50001A60802380229B012B4312011A6080228C
:101C6000414B52004A60E3614E4B5968FF2900D84E
:101C70005A6080224C4B216A12014A4D1A60002999
:101C800007D0606900F002FA431C5800C0180338FE
:101C9000FDD2E02243490B681A4080235B012B43AD
:101CA0001A60802380229B012B4312011A6080233B
:101CB00080225B004B602C4BD20223623B4B596865
:101CC000914200D25A608022394B616A1201374D2D
:101CD0001A60002907D0606900F0D8F9431C580049
:101CE000C0180338FDD2E02230490B681A40802327
:101CF0005B012B431A60802380229B012B4312013E
:101D00001A608023DB024B60184B6362294B5A68D0
:101D1000FF2A02D8802252005A608022264BA169F5
:101D20001201244D1A60002907D0606900F0AEF955
:101D3000431C5800C0180338FDD2E0221D490B682F
:101D40001A4080235B012B431A60802380229B0171
:101D50002B4312011A6080235B004B600E4BA36182
:101D6000DAE6C0462C360020006CDC021BB700000F
:101D7000008000403CB0004030B00040002F685967
:101D800000800240008C864700C002403080004046
:101D9000001BB7003C80004040597307548000404E
:101DA00054B000406080004060B000406C80004053
:101DB0006CB000404880004048B00040014B8000BB
:101DC000C05870472C360020F8B5040021481D008B
:101DD00017000E0000F05AF90100380000F056F923
:101DE000069B29041B0319432368002B20DB1A4B95
:101DF0001A4DE21853425A4180235B019C4612035C
:101E0000174B62441A60174B1A601700AB689F4368
:101E1000FBD1C022231D92011A4321232660A0601A
:101E200013602368002BFCDA0823E1601360F8BD1F
:101E30003F2322681340B342D9D1A3681B051B0D71
:101E40008342D4D1EE22E368D20213408B42CED13A
:101E5000EDE7C046001BB7000040FDBF00C00040DA
:101E600000E0004000F000408023024A9B00034352
:101E7000D362704700800540AA23064A1B01136005
:101E80002F230549D360054B19605368002BFCDAFA
:101E90007047C0460040024000B0FA0000600240B7
:101EA0002C4B2D4A70B51A602C4A2D4B2D491A60C7
:101EB00014008B689C43FBD12B4D2C4EB54208D2AD
:101EC000013E761BB60808CD984723000134B34283
:101ED000F9D1FFF70BFE264A214B1A60214A93687D
:101EE000DB43DB01DD09002BF9D14022214B224CE1
:101EF000224E9A675A671A67DA66B44208D2236894
:101F00002000002B20D00834FEF7DCFEB442F6D3CC
:101F10001B4E1C4CC022A168300000F0A1F9A66045
:101F2000FEF714FCFEF7A6FEFFF77AF8164C174EE4
:101F3000B44208D2013E361BB60808CC98472B00A5
:101F400001359E42F9D170BD0834FEF7ADFEB442B2
:101F5000D5D3DDE700E00040BFCDFBFEFE7F3C00B7
:101F600000F0004000C00040982E0020A82E002065
:101F7000FFFFFF0100F00140902E0020982E00206E
:101F80000000002000ED00E0A82E0020AC2E002074
:101F900000BEFDE710B5FFF7FBFFC0460FB400B56C
:101FA000084883B000F08EFA049B002B07D005A9E7
:101FB0001800019100F018F8034800F083FA01209E
:101FC000FFF7E6FF144F0010244F001010B5014832
:101FD000FFF7E4FF284F001010B5002800D110BD16
:101FE00000F024FAFBE7C04610B5094A0300146864
:101FF00084B0002C08D0012200910648524203A967
:10200000A047012004B010BD00F05CFA0020F9E701
:10201000A03A0020D91F001001480421014B1847A5
:10202000302E002049200010142310B5010018881C
:1020300004331B88984710BD162310B5010018887B
:1020400002331B88984710BDF8B54746CE4680B589
:102050000F1E19D0142399460433040000250126CD
:1020600098464B461888434621681B88984701C408
:10207000431E9841013540420640AF42F1D1300045
:10208000C0BCB946B046F8BD0126F8E7114A936FC7
:102090009B0813D210665166002905D0FFE7FFE7C1
:1020A000FFE7516F106F704704B5002801D0002082
:1020B000C04302F065FE002104BDC046F0B5146EB9
:1020C000556E576F166FFFF7E5FF14665566576735
:1020D0001667F0BD000000D010B50148FFF75EFFA5
:1020E000344F0010132370B51D78012D11D035DD4C
:1020F0001C48FFF7A1FF1C4C01008022200000F0CB
:10210000AFF8022D27D01948FFF78EFF184B186043
:1021100070BD184B144C23606360A360E3602361BF
:102120006361A361E36123626362A362E362236389
:102130006363A363E36323646364A364E364236569
:102140006365A365E36523666366A366E366236749
:102150006367A367E367084BA364D4E7024C064BAD
:10216000A364D0E753440000B02F00204C3300009C
:10217000B83A0020D92000107D21001007B5604634
:1021800001880A0A0230DF2AFAD1C9B2820804D3D0
:10219000028840880004104300E00068014A505063
:1021A000039007BDB02F002051434343C9188C460C
:1021B000110C83B24B4310B4040C614392B280B251
:1021C000504362431C041B0C001910BC59411304FA
:1021D000120CC018514161447047000010B501480D
:1021E000FFF7DCFE8C4F0010132310B510481C784D
:1021F000FFF722FF0100012C0AD003DD80220D48E9
:1022000000F02EF80C48FFF70FFF0C4B186010BDC4
:10221000084C5422200000F023F82300084A8033A1
:102220002168002900D122600434A342F8D1E9E7F3
:1022300053460000BC3A00204C330000B83A00205E
:10224000DD21001001480421014B1847402E0020D9
:1022500049200010014B1B6818470000402E002049
:10226000014B5B6818470000402E0020030010B5AA
:10227000080011001B68984710BDC046F0B54646DF
:102280004F46D646C0B5437D80460E001700002B52
:1022900046D0002A3FDD4B1E9946244B01250024E1
:1022A00000209A460DE04B461B5D0D3B5A425341C0
:1022B000325DDBB20A2A0BD02B00013401359F427C
:1022C0001ADD002CEFD14346325D1B7D0A2AF3D183
:1022D000002BF1D1A04204DA4346211A1B683018C2
:1022E0009847434650461B6802219847013428000E
:1022F0002B0001359F42E4DC874204DD4346391A56
:102300001B6830189847F619013E33780D3B5A4246
:10231000534142461375E0BCBA46B146A846F0BDEB
:102320000368110030009847F5E7C046C04F001021
:10233000F0B5DE4657464E464546E0B585B0170037
:102340001C0006000D00FFF731F80023304A121878
:102350004B41002B58DB2F4908008A4602F030FD24
:1023600001906B1C03D1300002F0C2FC0500002C70
:1023700025D1294B9846294B1C68002C15D0002FDD
:1023800020D1274F02E02469002C0ED02368002BB7
:10239000F9D03B68002B01D0A342F4D120002A00E1
:1023A0003100C0472469002CF0D1019B002B27D1BC
:1023B00005B0F0BCBB46B246A946A046F0BD194BDD
:1023C0009846D8E7164B994602ABDF1D0A239B4679
:1023D00002E02469002CE8D02368002BF9D04B469A
:1023E0001B68002B01D0A342F3D12A00310020004A
:1023F000C0475B460122390020003B70C047E8E738
:10240000504602F0A5FCD3E70122074B5242A2E757
:1024100040420F00902E00207D22001094360020B4
:102420009C3600206D220010FFFFFF7FF0B5CE46E6
:10243000474680B583B06B460600DD1D2870FEF769
:10244000B5FF00231A4A12184B41002B2BDB194908
:102450000800884602F0B4FC174B81461C68002C2B
:1024600014D0164F02E02469002C0FD02368002BF3
:10247000F9D03B68002B01D0A342F4D12000012207
:102480002900FFF7FBFE2469002CEFD14B46002BFF
:1024900005D1300003B0C0BCB946B046F0BD4046DF
:1024A00002F056FCF5E70122054B5242CFE7C04649
:1024B00040420F00902E0020943600209C360020D1
:1024C000FFFFFF7F70B5040002F012FC0023010043
:1024D000050001222000FFF72BFF084B1C68002C91
:1024E00006D06368002B05D098472469002CF8D1EA
:1024F000280070BD2469002CF3D1F9E79436002040
:102500000A4A1368002B05D10CE01A001B6910322F
:10251000002B07D09842F8D1002902D1036913603B
:10252000016170470029FCD01060FAE79436002062
:10253000F0B50D1E15DD0E4B0D271A680D4B451914
:10254000D31859424B410C495B005E5E2021047850
:10255000A64207D093691942FCD101301460A84209
:10256000F5D1F0BD93691942FCD11760F2E7C0467E
:10257000D83B00200080FCBFD03B002030B50400D9
:102580000D1E26DD002010211B4B013C1A689369AB
:10259000194219D1013093691942FCD113682354AF
:1025A0008542F4D1154B1B68002B0CD0502393634C
:1025B000516B183B34320B401100802252010A4308
:1025C0001360002815D030BD0C4B1B68002BEDD1DB
:1025D000F7E70A4B1B68002B0BD050223821064B23
:1025E0001B689A635A6B34331140802252011343A3
:1025F000196003204042E6E7D83B00202036002047
:10260000064B10B51B68002B06D00021044A126847
:102610009163044A1068984710BDC04620360020D8
:10262000D83B0020243600201D4BF0B51A68C64662
:1026300098461C4B0E00D31859424B411A4F143385
:102640001C00050000B53B68002807D0002B11D006
:10265000164B3D601E6080BCB846F0BD002BF7D025
:10266000906300212000FEF79BF820001049FEF740
:10267000CFF9EDE720000E49FEF7ACF8012120006C
:10268000FEF78EF84346502238211B689A635A6B36
:10269000343311408022520113431960D8E7C046F9
:1026A000D83B00200080FCBF2036002024360020CC
:1026B0000126001070B50C4E0D001C003060002A81
:1026C00003DB02211000FDF77BFF002C03DB02215E
:1026D0002000FDF775FF29003068FFF743F901215D
:1026E0000248FFF70DFF70BDD83B0020502E0020A0
:1026F00010B501210520FEF753F810BD10B50022DA
:102700000021024800F05AF910BDC046C036002032
:102710008022024B5202DA647047C04600201150FA
:10272000F0B5C64600B5060000F022F90C231B4D9B
:10273000FF22AB6705201A49FEF776F8402398463A
:10274000184C402200212000FFF784FD434601275A
:10275000238321210023144A6770A260136063540D
:102760005F31618441462187053963540F4A10491E
:102770006360E260A1620B606362E26202F0F0FA01
:1027800080239B052F64EB6490230A4A3000EA50B3
:10279000FFF7BEFF80BCB846F0BDC0460000115038
:1027A00079030020A0360020840010500001105052
:1027B0008000105010D001000B785B0602D14B78DE
:1027C000052B00D070478A78014B1A60FAE7C046A3
:1027D00000001150F0B5C64600B54B790C791B02CC
:1027E00088782343CC787F21A4070140C509A20F34
:1027F0004F001400324E7A195201B2189070012025
:102800006840507000205B055B0DD0701383D47658
:102810008046CA00012D33D02A488446880162448C
:102820008446B4446046826040461060002933D03C
:10283000254AC90090466246414451603F223F33D9
:102840009343022C00D15B0020487A1901685201A1
:10285000B218D1601E4ACB18036051405340802209
:1028600088465201934228D84346A4061C4380233D
:102870007F197F011B06F6191C4373681C6011E069
:1028800014488446880162448446B44460468262A7
:1028900040461060002909D100236D01761973604C
:1028A0000D4BF360012080BCB846F0BD084AC9005A
:1028B0009046624641445162C0E7FFF787FBD3E789
:1028C000A03600208400105004001050A43A0020CC
:1028D00000001050800010500001105010B502F0A0
:1028E0003FFA10BD10B57F200C0020404000E409E5
:1028F000110000191A00034B4001C01800F05EF8E7
:10290000012010BDA03600207F22130010B50B401F
:102910000A420BD0C90980225800401806494001DC
:1029200040181201002102F063FA10BD0222034890
:10293000C909521A8266EEE7A03600200020115025
:102940007F22100010B508400A4200D110BD0023BC
:10295000C9094000401804494001081800220349F1
:10296000C37002F045FAF1E7A0360020FFF7FFFF41
:1029700080220D4B520410B51A600C4B0C491A60A2
:1029800010008B689843FBD10A4C9C220021200048
:10299000FFF760FC8022002152010748FFF75AFC34
:1029A0000923636710BDC04600E0004000F000400E
:1029B00000C00040000011500000105070B5837E30
:1029C00004000D001600002B17D10023E382013311
:1029D0002000A682A376256102F0DAF9002804D04F
:1029E00080219023084A8902D150200002F0C0F9CA
:1029F000002805D00123237770BD02F0F1F9E4E748
:102A0000200002F0E5F9F7E700201150F0B5C646C6
:102A100000B5224E224A050000243378002A2AD02D
:102A2000204A214F9046A3422ED8E31ADBB2012B55
:102A300002D980BCB846F0BD5A00D318DB00FB18A1
:102A40005B682800984733780134E4B25A1CA242EC
:102A5000E9DA164C532200212000FFF7FBFB10227D
:102A6000FF21E01CFFF7F6FB20002022FF2113309E
:102A7000FFF7F0FBDDE700F03DFF280001F0AAF9C9
:102A80003378002BD5D1E4E74246126863009446C0
:102A90001B19DB006344002BD2D1CAE7DC3B0020CA
:102AA00000000000CC300020B8500010F4340020AA
:102AB000024B5878431E9841C0B27047F43400204E
:102AC000024B18784007C00F7047C046F43400200E
:102AD000034B1878FF38431E9841C0B27047C04678
:102AE0008C2E0020F8B5CE46474680B5314E040006
:102AF00033780120FF2B03D0C0BCB946B046F8BDE7
:102B0000532200212C48FFF7A5FB2C4D2800FEF78F
:102B1000CBF82B4B1D602B4D28001430FEF7E0F84E
:102B2000280002F091F8284B284F1D60284B98464A
:102B3000002B04D0380000E000BF264B186042464E
:102B400000253B78002A20D0234A9046214A91460E
:102B5000AB4223D8EB1ADBB2012B01D90020CBE723
:102B60005A00D318DB0043441B6898473B78013573
:102B7000EDB25A1CAA42EBDA20003470FFF7D0FD08
:102B80002000FFF7B5FD0120B6E700F07BFE01F065
:102B900017F93B78002BEFD00020ADE74A461268CA
:102BA0006B0094465B19DB006344002BDCD10020F2
:102BB000A2E7C0468C2E0020F4340020AC34002064
:102BC00048350020702E00204C350020DC3B0020D2
:102BD00000000000CC300020B8500010F0B5DE46F8
:102BE00057464E464546E0B58FB001F065FD0028DA
:102BF00053D0C94BC94F994618239A46053B9B466B
:102C0000C74D0BACBB442E687269EFF3108172B6EE
:102C10001368002BFCD0BFF35F8FB161300021003F
:102C200001F054FE7269B369BFF35F8F0021116038
:102C300083F31088002830D06378082BE3D84A4605
:102C40009B00D3589F466368002BDCD0A068984750
:102C5000D9E77F222179B14B0A4056009B1998464B
:102C6000C8098044404601233030C6789E43C67070
:102C7000C67803339E43C670002A00D181E04346E4
:102C8000A84ADB7C002A06D0A74A1278934200D2D9
:102C9000CEE09B1ADBB2012B68D90FB0F0BCBB466B
:102CA000B246A946A046F0BD01223B78012013435D
:102CB0003B7033230421FA5C8243FA54FA5C8A4362
:102CC000FA540133FA5C8243FA54FA5C00208A43D6
:102CD000FA542378984600F0A1FC602223791A4028
:102CE000602A0AD0402A52D0DB06DB0E012B00D12D
:102CF000A7E0022B65D0002B57D020780021FFF7EA
:102D000003FE80212078FFF7FFFD7CE7834B1B78D3
:102D1000DB0700D477E7854B002B00D173E7FDF785
:102D200079FB70E77D4B1A78D20700D46BE7804AB5
:102D3000002A00D167E718780007C00FFDF768FB8D
:102D400061E72078FFF762FE00F05EFC794B002B14
:102D500000D158E7FDF75AFB55E72078FFF756FEFC
:102D600000F052FC22796D4B9A704CE75A00D21851
:102D7000714BD2009B181E6962792078A368B04716
:102D800041E762792078A36800F05CFC3BE76B4880
:102D90000028B2D000F042FC012140460CAA00E01D
:102DA00000BF002800D02EE7A7E7202A00D162E16B
:102DB000002AA2D16379092B9FD8614A9B00D3587E
:102DC0009F467023217A0B4297D10F330B405B0053
:102DD000F818CE090193534B8019C07C002B06D004
:102DE000514B1B78984200D285E0C01AC0B201282E
:102DF00060D9002A81D10023029360790223020066
:102E000003909A43012A00D14EE1002800D074E7D4
:102E1000019B0AAAFB189E193036F37802329B07F1
:102E2000DB0F1380404602230CA900F08FFBEAE67B
:102E30005A00D218434BD2001B689B18002B9AD122
:102E40002BE7237A0F2B00D957E7364AFB18DB789C
:102E5000002A05D0344A1278934242D39B1ADBB23F
:102E6000012B00D949E75E00F318334EDB00F6185A
:102E7000F06800F0D3FB01214046F3680CAA9847A4
:102E8000002800D0BFE66022160023791E401A42B7
:102E900000D032E763790A3B012B00D92DE700F01F
:102EA000BDFB63790A2B00D14CE140460CA900F030
:102EB00035FBA8E643009C461F4B6044C0009C467F
:102EC000030063440293002A97D0029EF36818001F
:102ED000019300F0A3FB01214046F3680CAA984738
:102EE0005FE7184A5E00F3181668DB00F618002E3C
:102EF00000D102E7BCE743009C46124B60441B68CC
:102F0000C0009C46030063440293002A00D174E78A
:102F1000002BDAD1F1E6C0462C500010F43400202A
:102F20004C35002000000000DC3B002015040010A0
:102F3000110400100D040010B85000100000000033
:102F400050500010CC300020A37906931A007B78F3
:102F50009A4207D07B78002B00D065E1069B002BBE
:102F600000D0F8E0069B40460CA97B7000F0D6FA32
:102F700049E67B780AAA02321370404601230CA965
:102F800000F0E4FA3FE6E088030AC0B20F2B00D954
:102F9000B3E6C3499A008A5897460CA800F044FB50
:102FA0004046A179FFF7AAFB02223B7813433B700E
:102FB00029E6E388012B00D09FE608223B784046B3
:102FC00093430CA93B7000F0A9FA1CE60220397863
:102FD0000AAB9A1C8B068908DB0F01400B4320E7E4
:102FE000E388012B00D088E608223B784046134353
:102FF0000CA93B7000F092FA05E6AA4B002B00D119
:103000007BE600E000BF021E00D176E6D37891781F
:103010001B020B4340460CA900F098FAC1E6A24BF4
:10302000002B00D169E600E000BF021E00D164E67B
:10303000404613780CA900F089FAB2E62189FDF721
:103040007FFA021EF4D158E6022B00D1F5E0974B2F
:10305000002B00D151E600E000BF0200002A00D1A1
:103060004BE6D3E7FDF764FA122302000CA94046B1
:1030700000F06CFA95E6237A0F2B00D93DE68C4AD6
:10308000FB18DB78002A05D08A4A127893422ED3A7
:103090009B1ADBB2012B00D92FE65E00F318864E97
:1030A000DB00F618F06814E7E288002A08D101284E
:1030B00027D0019BFB189E193036F3789B0734D537
:1030C000029E002E00D19EE5F3681800019300F0E7
:1030D000A5FAF36801210CAA40469847002000F0A9
:1030E0009DFA3423FB5CDB0700D58CE5DDE6734AF3
:1030F0005E00F3181668DB00F618002E00D1FCE520
:10310000D0E7019BFB189E193036F3789B07D7D583
:103110006B4B1878FFF714FC0222F3789343F3709B
:10312000F378039A9343F370CAE7654B1878FFF777
:10313000EBFB0222F37813430122F370F37813437D
:10314000F370BDE70AAB9A1C404601230CA9167028
:1031500000F0FCF957E5581EC0B2FDF7EDF9002864
:1031600000D1CAE543780893022B00D0C5E50121C0
:103170000600C2790936931152110B400A40120120
:103180005B0113433A782F318A4313433B70C37872
:1031900082781B021343C31807934346B046049337
:1031A000079B434500D8AEE0434601225B7803927B
:1031B0000B2B05D14346DB78039343461B78984499
:1031C00043465B78042B00D097E542460021079BDD
:1031D00001919B1A9BB20293354A364B05911B789D
:1031E0008A4239D0019A9A422BD3D31ADBB2012BEF
:1031F00000D982E5524653432F4AD6184146029AD7
:103200000498B36898478446082802D9029A8242F3
:103210003FD2019B0133D9B2264B01911B78059116
:103220005A1C8A42DEDA68E54046FFF757FBBE7853
:103230004046FFF7EBFBBE7090E6FDF77DF902001C
:103240000CE71E4B56461B6856430993099B9C4648
:103250006644002ED2D150E5029E414632000498C9
:1032600000F05EFB8446082801D9864254D2029EB3
:1032700041463200049800F0B7FD8446082800D883
:103280003BE5864200D238E501230B4E0193183608
:103290000593039B012B41D0002240461EE0C0460F
:1032A0007850001000000000000000000000000046
:1032B00000000000DC3B0020B8500010CC300020A3
:1032C0008C2E00208378D318DBB2FB18D978FF2925
:1032D00000D012E501990132D970D2B2039B9A4213
:1032E000F0D16646624680460100019B584601F0D7
:1032F00067FAB4460D4B059A1B78E04401339A42B5
:1033000000DC4DE7F9E4049B9846094B002B00D103
:1033100028E6FDF779F825E6064EBAE7064BB268CF
:103320009A42B9D1089B0393B6E7C046DC3B002024
:1033300009040010B850001021390010F8B55746A4
:103340004E46DE4645460C00E0B516001F00002A3A
:103350003CD0702398461E4B00259B461D4B9A4639
:103360001AE05B461B78200099465346997801F095
:10337000EBF900281CD021004846FFF72BFA002863
:1033800016D0A378DA09012A19D00A9A01351370E8
:103390002378E418B54219DA6378052B08D1E3786D
:1033A0009B079B0FBB4203D14246A3781A42D8D059
:1033B0000020F0BCBB46B246A946A046F8BD0B9A19
:1033C000013513702378E418B542E5DB0120F0E7FE
:1033D0008C2E0020F4340020702270B58B780C0005
:1033E0001A4201D0002070BD064B20001D78064B0C
:1033F000997801F0A9F90028F4D021002800FFF7FE
:10340000E9F9F0E78C2E0020F4340020074B080087
:1034100019687F2310B50340C0095B0033301818CA
:10342000034B181801F04CF910BDC0464835002078
:10343000F4340020074B080019687F2310B50340BF
:10344000C0095B0033301818034B181801F060F9FD
:1034500010BDC04648350020F43400207F2070B5F0
:1034600008400F4C4000CD09241864193034E57829
:103470000020ED0700D570BD0126E57809483543E9
:103480000078E570FFF72EFA0028F4D10122E378E6
:103490009343E370E37803329343E370EBE7C04672
:1034A000F43400208C2E00207F22CB090A400449EE
:1034B00052008918C9183031C878C007C00F70474A
:1034C000F43400207F2310B50B400B4C5B00E41854
:1034D000CA09A4183034E3789B0700D510BD074B08
:1034E0001878FFF711FA0222E37813430122E37000
:1034F000E3781343E370F1E7F43400208C2E0020CE
:103500007F22CB090A40044952008918C91830317A
:10351000C8788007C00F7047F434002070B50A4E99
:103520000500300008220C00FEF79AFE00237F21E0
:10353000F3602278B36091425B412800D9010022F8
:103540000023FFF78BFF70BD18320020F8B5CE4680
:10355000474691462A4E80B50822070030000D00EC
:103560009846FEF77DFE4B46B3600023F381EC796D
:10357000A97924020C43231C444500D943469AB23E
:103580009046B381002C13D0002A1FD04B46002B4D
:1035900034D0131C402A1FD89BB2984633787F2B17
:1035A00020D80021174A43463800FFF757FF09E0AB
:1035B0007F222B7838009A42644100230022E101E7
:1035C000FFF74CFFC0BCB946B046F8BD33787F2B3F
:1035D00011D980210022E6E740239BB29846337838
:1035E0007F2BDED9074C424649462000FEF738FEC5
:1035F00080212200D7E700210022D4E70020E1E764
:1036000018320020B434002010B5142200210248E2
:10361000FEF720FE10BDC04618320020014B186195
:103620007047C0461832002010B5054C0100082232
:103630002000FEF715FE0023A360E36010BDC04626
:1036400018320020F8B53B4C1D0023780600DA093B
:10365000C9098A4213D00020002D00D0F8BD364B96
:10366000002B03D021003000FFF7A6F82369002BC0
:1036700044D022000321300098470120EEE77F2B41
:1036800006D8A068002837D02A002C49FEF7E8FDAC
:10369000A368E28959195219E38892B2E281A160C4
:1036A000934214D03F2D12D9A589A81A071C80B2C5
:1036B00040282FD82378BFB27F2B2DD80021AA42D3
:1036C00035D01E4A3B003000FFF7C8FEC6E723692D
:1036D000002B05D0220002213000984700280FD08F
:1036E0007F220021237830009A42494100230022A2
:1036F000C901FFF7B3FEB1E70020AFE70120ADE756
:1037000000213000FFF700F930008021FFF7FCF8BE
:103710000120A3E74027CDE7AA4207D0074C3A0093
:103720002000FEF79DFD80212200CBE780210022B2
:10373000C8E7C04618320020B9270010B434002072
:10374000020083001B1810B5D8008018034BC0007E
:103750001030C01801F086F810BDC046D0300020EF
:10376000F0B584002418E4002418E4002600C646BE
:10377000174F1036F61900B5300092B201F0F6F886
:103780000500300001F08CF83F2803D8280080BCE9
:10379000B846F0BD3B190020D9789846FFF736FEB1
:1037A0000028F3D0300001F07BF83F2809D922002F
:1037B0004346C832D978D21940230020FFF74EFE85
:1037C000E4E743460020D978FFF734FEDEE7C04641
:1037D000D0300020F8B50500FFF76AF9002801D1C4
:1037E0000020F8BDFFF76CF90028F9D1AB005B1998
:1037F000DC006419E4002500134E2435AD192800BF
:1038000001F030F80028EBD037190020B978FFF725
:10381000FDFD0028E4D00934FF34A419210028005C
:10382000402201F0A3F8B978051E08D00300220059
:103830000020FFF713FE0028D2D02800D1E7002097
:10384000FFF7F8FDCCE7C046D030002070B584000B
:103850002418E40024180A4BE4002434E41805007A
:1038600092B2200001F03CF90600200000F0FAFFBF
:103870003F2801D8300070BD2800FFF7ABFFF9E703
:10388000D0300020A42270B5184C82B00021200056
:103890005200FEF7DFFCFF236371154B0025E38028
:1038A000012608232100200026812373402238317D
:1038B0000095073B103000F09DFF0096210020008E
:1038C0002600012340227831B836243000F092FFE0
:1038D0003000FDF7E9F926622600C0363000E561C8
:1038E000FDF7E2F92663656302B070BDD0300020B9
:1038F00000C2FFFF10B5094C052200212000FEF791
:10390000A9FC20002434103001F09EF9200001F0C1
:103910009BF90121200001F0B7F910BDD030002043
:10392000F0B54B79060083B0022B02D18B79022BC4
:1039300003D00025280003B0F0BD2F4FBB78002B2B
:10394000F7D18B7809253B700C780C196378242B00
:103950000BD1082A02D80FE0AA420DD32378E4182D
:10396000ED186378ADB2242BF6D0052B1FD0042BB5
:1039700002D163790A2B2DD0204C200000F090FF5B
:103980003F28D7D92600103E0020F178FFF73EFDF2
:103990000028CFD0200000F083FF3F2815D9220057
:1039A0004023F178B8320020FFF758FDC2E721002C
:1039B0003000FFF711FD0028BBD0A3787B7023787F
:1039C000ED18E4186378ADB2D1E7F1780020FFF785
:1039D00031FDAFE70A4B27780193013300930222B0
:1039E00002233000E119FFF7A9FC0028A1D00E3511
:1039F000ED19ADB2C0E7C046D0300020E030002065
:103A0000D2300020F8B5602314001278050013406E
:103A10000020202B12D12F4A6379277916781B02B8
:103A20003B439E420AD16378222B27D007D8202B14
:103A300017D0212B02D101293DD00120F8BD232B25
:103A4000FCD101293FD00329F7D1234B002BF4D01F
:103A5000E178A37809020020194300E000BF0120AB
:103A6000ECE7012927D00329E7D11C4B002BE4D038
:103A70000020911D00E000BF0120DFE7012922D0D6
:103A80000329DAD101252E00A378E4780239240233
:103A90001C431471264024321000714001F0F4F8E8
:103AA0000F4B002BC9D06208002031002A40FCF7E0
:103AB000B3FC0120C2E7072321002800094AFFF7D1
:103AC00045FD0120BAE721002800FFF727FD01206E
:103AD000B4E7C046D0300020000000000000000025
:103AE00019040010D6300020F8B557464E4645461A
:103AF000DE46E0B5484F8046FA780C001E008A4248
:103B000063D19AB210233D009B46C835BB442900BF
:103B1000584600F0E5FF414BD946002B18D07B7981
:103B2000D946FF2B14D0002E12D0AA19924603E0DA
:103B3000013555450CD07B792A789A42F8D1484610
:103B400000F0A6FE0028F3D1797900E000BFEFE78E
:103B5000334B002B04D0484600F09AFE002851D089
:103B6000484600F09DFE3F2834D84A46103A9378E4
:103B7000A34207D001242000F0BCBB46B246A946B0
:103B8000A046F8BD274B002B02D0002000E000BF6C
:103B90000020FFF71FFE0028ECD1234D280000F085
:103BA00061FE0028E6D1002EE4D0B306E2D1243D28
:103BB0004046A978FFF72AFC041EDBD00023002230
:103BC0004046A978FFF74AFCD5E7BB788B42D9D0AD
:103BD0000024D0E74D46103D0020E978FFF716FCA1
:103BE000002801D1AB78C3E7484600F059FE3F28D2
:103BF0000BD94A4640230020E978B832FFF72EFC63
:103C0000AB78B5E7FCF70AFCAAE70020E978FFF7F4
:103C100011FCAB78ACE7C046D030002000000000BB
:103C20001D04001000000000F4300020F0B54746ED
:103C3000CE4680B5364C0600E18AA36849BA89B2FF
:103C4000984687B0002904D01800FEF71FFA010437
:103C5000090C2369257D1A0AA36B2D0618009946C5
:103C60001543FEF713FA2DBA0A00434641194D4693
:103C70005B1B8025274F607BAD00AB4200D92B003A
:103C800000933B00FCF71CFC051E1FDB00280BD03B
:103C90002E2283B2A15C30003A00FFF7DFFB07B0B1
:103CA000C0BCB946B046F0BD2E23E75C03AC082289
:103CB00000212000FEF7CEFA072300212000267005
:103CC00063702771059501F073F8E8E7124B002245
:103CD000A3873E2330210220E254123B0132E254FA
:103CE000A268A36B6054D31AA362002AD7D0002B1A
:103CF000D5D0237BDB0905D02E233000E15CFFF714
:103D0000E1FBCCE72F233000E15CFFF7DBFBC6E7EC
:103D10006C3400206C320020023A00001E4B70B55B
:103D200005001E4C002B04D0607B00E000BF002883
:103D300010D0A26BA3689B1A80229200934207D8EE
:103D40002F222800A15C9BB2154AFFF787FB70BDAC
:103D50001300F5E7134B0122A3873E233021E054E3
:103D6000123BE254A268A36B0230D31AA3626054E0
:103D7000002AECD0002BEAD0237BDB0905D02E23D0
:103D80002800E15CFFF79EFBE1E72F232800E15CC0
:103D9000FFF798FBDBE7C046000000006C34002012
:103DA0006C3200200727000010B53C240348015561
:103DB0003D2142543E228354012010BD6C3400202A
:103DC00010B5402200210248FEF744FA10BDC0465B
:103DD0006C34002010B5402200210248FEF73AFA68
:103DE00010BDC0466C34002030B54B79040083B060
:103DF000082B02D18B79062B02D0002003B030BDF6
:103E0000CB79502BF9D1162AF7D98A780E4D233B5E
:103E1000EA540B780222C9182B002E3301932B0091
:103E20002F3300930223FFF789FA0028E5D03023CF
:103E30000022EA54013BE95C2A002000103BFFF716
:103E40000DFB1720DAE7C0466C34002070B5050082
:103E5000140082B001292AD17F2312781340022B4B
:103E600028D0602300201340202B21D16378FE2B23
:103E700050D0FF2B1CD1E378A2781B02134317D13B
:103E8000E379A2791B02134312D1302200213C4B6B
:103E900098540E32586398639887995428002100EB
:103EA000FFF73CFB012003E02800FFF70BFB01209C
:103EB00002B070BD6378012BD3D1E378A2781B02E6
:103EC00000201343F4D1302221792D4CA35C042B24
:103ED000EAD02E20205C884241D02F22A65C8E4260
:103EE000E5D1002BE3D131002800FFF7DDFA0028EF
:103EF000DDD131002800FFF703FB0028D7D13023A4
:103F00000022E254013BE15C22002800103BFFF755
:103F1000A5FACDE7E378A2781B0213431BD1E3791E
:103F2000A2791B021343012B15D16A46D371154B9D
:103F3000002B12D000E000BF00280CD00138C0B226
:103F40006B466A46D8712100012328000732FFF72B
:103F5000FDFA0120ACE70020AAE70020F0E7022BE1
:103F6000A5D1A16BA3685B1AA3620323A35422000B
:103F70000100203228000A33FFF770FA98E7C046A4
:103F80006C34002000000000F0B5454657464E4610
:103F9000DE46E0B51F003023BB4C0500E65C9846CA
:103FA00091B0012E0ED0032E60D0002E1CD0022E18
:103FB00000D18AE0012011B0F0BCBB46B246A94650
:103FC000A046F0BDE37B282B74D02A2B00D1BCE0A7
:103FD000A36B227B9C466744A763D20900D1A5E06E
:103FE000636B9F426ED2E5E7013BE35C8B42E1D11C
:103FF0001F2F00D086E0A54B22689A4200D081E0B6
:10400000A34B4246236263682C2763620123E65573
:10401000A354E27BA368A6626363A663282A00D147
:10402000D3E02A2A00D175E2002B00D1F3E0207BF7
:10403000C00900D0EFE080229200934200D82EE227
:10404000A3623023D53AFF3A0130A0542A3AE25411
:104050000C33E35C002B03D18E4AA2873E22A3548B
:104060002800FFF72FFA3023E65CA0E72E23E35C5D
:104070008B429FD10D2F9DD1E37B282B00D141E2B4
:104080002A2B00D136E2844B002B04D02100607B28
:104090000F3100E000BF00233026A3552F33E15C31
:1040A00022002800103BFFF7D9F9002800D1FEE1DB
:1040B000A65D7CE7A36B9C46636B6744A7639F4246
:1040C00000D27DE030230222E2542E262800A15D9A
:1040D000FFF716FA002800D06CE7A368A26B9342A2
:1040E00002D9217BC9091CD19B1AA3620322302368
:1040F000E2542200023BE15C28002032213BFFF722
:10410000ADF958E704223023E254023BE15C280079
:10411000FFF7D8F92F232800E15CFFF7D3F900203F
:1041200049E72800A15DFFF7CDF943E72100A38E01
:10413000607B5A4A0F31FCF7EDF9002800DABAE14A
:10414000A36B626B9342BDD28DE7E18A49BA89B213
:10415000002900D1ADE1A068FDF798FF0104090C2A
:104160002369267D1A0AA06B36061643FDF78EFFDB
:1041700036BA4A4B0A008119607B00979846FCF7D3
:10418000BBF9002800DADDE1874238D93F1A002860
:1041900000D019E22F2307AEE35C08220021300093
:1041A0009846FEF757F8072373704346357033710E
:1041B00030000021099700F0FBFD3023E65CF6E6B5
:1041C000FFF734FD4346E65CF1E6E08A40BA80B290
:1041D000002B00D005E2002800D173E702232C2237
:1041E000A3540022A2623032A3543A33E35C002B82
:1041F00000D06AE7274AA2873E22A35465E7A36B53
:104200009C46636B6744A7639F4200D35AE728002C
:10421000FFF784FD27E7667B252A03D82049920013
:104220008A5897463C22A25C002A50D11B4A9046ED
:104230002100424630009BB20F31FCF76BF9002899
:1042400045DB002800D07CE0A368002B00D139E7D3
:104250002C220121A154A26B01319B1A3022A362AE
:10426000A1540C32A25C002A03D10A49A1873E2145
:104270006254002B00D128E7237BDB0900D0A0E1AA
:104280002F23E15CECE6C0466C34002055534243DA
:104290005553425305200000000000006C320020FE
:1042A000E850001006AF3A00300007A9FCF7F6F816
:1042B000079B002B03D03A88002A00D0E9E13C2379
:1042C000E35C002B03D1D84AA2873E22A3542C23BF
:1042D000012230210220E254A268A36B6054D31A59
:1042E000A3620C31615C002903D1D048A0873E2035
:1042F0002154002A00D1E8E6BBE707AF0C220021D9
:104300003800FDF7A7FF02AA94460E2363441A0063
:10431000300006A99846FCF7C1F8069A002ACED0CC
:1043200043461B88002BCAD0082112BAF9700892A4
:1043300002225BBA7B81BE4B3A72984607CF07C315
:104340000C20A368002B00D05EE101222C33E25444
:10435000A36B01325B42A3623023E2540C33E35C73
:10436000002B00D0B1E645E7B24B002B00D16BE744
:10437000E17C30008B07CA07DB0FD20F0909FCF77D
:1043800093F8002800D05FE73C23E35C002B9ED12C
:10439000A54B0022A3873E23E25498E7A64B0120B9
:1043A000002B02D0300000E000BFA14B0322984652
:1043B00001234340DBB2DB05134342460420136074
:1043C000BFE707AF082200213800FDF743FF802335
:1043D0005B427B708233BB70FB701D333B710822E4
:1043E000202109A8FDF736FF102220210BA8FDF798
:1043F00031FF924B300009A90F930BAA0FABFCF7CA
:104400000FF88B4B1A0098460BCF0BC20BCF0BC289
:104410000BCF0BC2242094E70F23984642462D333E
:10442000E35C07AF1A403D23E35C93469A463E2384
:104430009946E35C1222002138000393FDF70AFF3E
:10444000F0235A463B7043461340BB700A23524642
:10445000FB71039B3A737B73754B984607CF07C379
:104460003A681A60BA889A80754B002B00D10BE12C
:10447000802241469200300000E000BF00234A46FF
:10448000A387A354984200DBDBE6667B636BCFE631
:104490003000FBF7F1FF002800D175E7D4E62800D3
:1044A000634A9BB2FEF7DAFF002800D0DBE500206C
:1044B00081E5002154E62C230220E6544646A368F9
:1044C000A26BA055991AA1623A30205C002803D152
:1044D000564EA6873E26A055002B56D0002954D014
:1044E000237BDB0900D1B3E02E232800E15CFEF73B
:1044F000E9FF25E6534B002B00D1CCE5607B00E0C3
:1045000000BFC8E5504B002B00D1C4E5607B00E044
:1045100000BFC0E5E08A40BA80B2002B00D15AE665
:10452000267BF60900D099E0002833D0834200D2E0
:104530008CE02800282A00D06AE6FFF777FB3023BA
:10454000E65C34E5384AA36B0021A2873E229C46F4
:104550003026A154123A0131A154A2686744D31BFA
:104560000131A763A362A155002A00D1ADE5002B5C
:1045700000D1AAE5237BDB0900D17EE02E232800B1
:10458000E15CFEF79FFFA65D11E5636B9A4200D2E6
:104590009BE597E501202C22A05402200432A05470
:1045A000A3620C32A25C002A08D12048A0873E20DA
:1045B0002254002B00D188E5267BF609002E00D17D
:1045C0004EE52E23E15C4BE5A26B0100944603040B
:1045D0001B0C63443A0040464144A36300F010FCC6
:1045E000D8E5267BF6099FD10222A3624346E25416
:1045F0003C23E255E35C002B00D031E50B4B00225D
:10460000A3873E23E254D7E7984200D918002E2210
:104610006063A15C83B242462800FEF71FFF0028BA
:1046200000D020E50020C6E4023A0000052000008A
:104630006C320020A904001000000000202020207F
:104640000000000000000000000000000220A2E7BF
:104650002F232800E15CFEF735FF71E50222A362FB
:104660002C2030232254E2540C33E35C002BA8D1DD
:104670000C4AA2873E22A3549EE72F232800E15C28
:10468000FEF720FFA65D92E44A461220A387A354BA
:1046900057E60549013B1BBA12BA884608200B6051
:1046A0004A604EE6052000006C32002010B5002064
:1046B000FEF718FA10BDC04610B5FEF709FA10BD96
:1046C000037870B5DB0704000E00DD0F002B17D157
:1046D00003785B0701D5280070BD012130004942F5
:1046E00000F05EFB2378DB07DD0F002B0AD1237877
:1046F0005B0708D40422237801251343237002E0CA
:104700000025E8E70025300000F022FBE3E7C04683
:1047100070B50D00012104004942280000F040FB63
:1047200023785B07DE0F002B04DB280000F010FB72
:10473000300070BD2378DB0704D404222378934330
:104740002370F2E70026F0E710B5437904791B02E5
:1047500023435B055A0DC3789B079B0F022B05D0A3
:10476000032B15D00020012B08D010BD02291CD02E
:104770000020402393424041C0B2F6E702394B4249
:1047800059410D4B9C46614491424041C0B2ECE717
:1047900002394B425941F023002049429B00194005
:1047A000403191424041C0B2DFE7044BD3185A4236
:1047B0005341D8B2D9E7C046FF03000000FEFFFF17
:1047C0008A1870B5914207D27F264C78052C04D008
:1047D0000C7809198A42F8D870BD34008D782C40C5
:1047E00064000419ED0963550C7809198A42ECD864
:1047F000F2E7C046F0B5C64600B5040006A8057845
:104800008020884617001E000002824227D8E068F8
:10481000002803D00121494200F0C2FA2069002893
:1048200003D00121494200F0BBFA434623607304E0
:104830005B0CED031D430023E0686381A780E580E6
:104840002381002801D000F083FA20690124002888
:1048500001D000F07DFA200080BCB846F0BD0024F5
:10486000F9E7C04610B5048941898288A3B288B2AD
:104870008C4207D31B1A9BB2101C9A4200D9181CF9
:1048800080B210BD5100091A5B189BB2F4E7C04614
:10489000030000895B89C01A43425841C0B2704787
:1048A00010B5048941898288A3B288B28C4207D3AB
:1048B0001B1A9BB200209A4201D9D31A98B210BD9C
:1048C0005100091A5B189BB2F4E7C04670B50400AA
:1048D00000690E00002803D00121494200F060FA6F
:1048E00025896089A288A9B283B285422CD3CD1ACA
:1048F000ADB2002D2ED0AA4208D2914231D38B1AEC
:104900009BB263819A4203D89B1A9BB29A42FBD90D
:10491000E28821685204520C53433000C918FDF755
:104920009FFC618901254B1C9BB2A288994214D936
:10493000002352009B1A9BB220696381002801D09A
:1049400000F006FA280070BD5500ED1A4D19ADB201
:10495000002DD0D1002563899BB252009342EBDB3E
:10496000E8E789188BB26381CCE7C046F0B54646CC
:104970004F46D646C0B506000069894690460028D5
:1049800003D00121494200F00BFA31897289B588C0
:104990008BB294B2914257D31F1BBFB2002F4DD0A0
:1049A000BD4205D2AB4254D25B199CB22F00748138
:1049B0004346B84540D89FB2A54203D8641BA4B271
:1049C000A542FBD9F288281B5204530C19009846C3
:1049D000336861439C4680B26144874226D943468E
:1049E000584383B21A0048469A46FDF739FC4346BD
:1049F00048467D1B64195C4331685044A2B2FDF700
:104A00002FFC7189B588CB199BB26A00994217D9DE
:104A10009B1A9BB230697381002801D000F098F98D
:104A20003800E0BCBA46B146A846F0BD424648460A
:104A30007A43FDF715FCE4E73B1CBCE773899BB2A6
:104A40006A009342E6DBE3E76F003F1BDF19BFB26A
:104A5000A4E75B1B9CB2A9E7F8B50400C0680E0090
:104A6000002803D00121494200F09AF925892089C4
:104A70006189A288ADB283B28FB2884228D3DB1B92
:104A80009BB29A4209D8E779FF0906D1E06800286D
:104A900001D000F05DF93800F8BD2B00954203D33A
:104AA0009B1A9BB29342FBD2E28821685204520CBB
:104AB0005343C8183100FDF7D3FBA2886B1C9BB28F
:104AC00052009D4209D99B1A9BB201272381DDE741
:104AD0005100C91B5B189BB2D3E79342F5DBF2E7A9
:104AE000F0B54E464546DE465746E0B589460500D8
:104AF000140083B0002A6ED0C068002803D00121C2
:104B0000494200F04DF92F89EA796B89BFB29BB217
:104B1000D20942D1AE889F4267D27200D31AFB18E5
:104B20009BB2002290469E4231D9F31A1A1C9BB2C6
:104B3000A34200D9221C93B29846E8884346FB184A
:104B40009BB29B463C00B74203D3A41BA4B2B44221
:104B5000FBD24004430C18009A462B6860439C46E5
:104B6000311B89B2604441454ED3524643464946C3
:104B70005A43FDF775FBAB885B00BB4501D39B45F2
:104B800003DB5A46D31A9BB29B465B462B81E868EF
:104B9000002822D000F0DCF81FE0AA88904694425A
:104BA00026D29F4244D34146FA1A92B249001219C2
:104BB0008A4209DB42469A1892B2171BBFB293464B
:104BC000BB423AD97F1ABFB2E3199BB246469B4615
:104BD000A046E888B6E700239846404603B0F0BCFC
:104BE000BB46B246A946A046F0BDFB1A9BB298E769
:104BF000E888A21A4404640C54434246A144002AA3
:104C0000C5D046461F0099E75346594389B20A006A
:104C100001914946FDF724FB43469A1B5346A218CF
:104C20005A430199286892B24944FDF719FBA2E75B
:104C30005100CA1ABA1892B2B9E7B942C2DD464663
:104C4000E888A0467EE7C04610B50400C06800288A
:104C500003D00121494200F0A3F82069002803D0C5
:104C60000121494200F09CF80023E0686381238120
:104C7000002801D000F06CF82069002801D000F075
:104C800067F8012010BDC04670B50400C0680D0073
:104C9000002803D00121494200F082F82069002851
:104CA00003D00121494200F07BF87F21E379ED0137
:104CB0001940E0682943E171002801D000F048F86C
:104CC0002069002801D000F043F8012070BDC046E3
:104CD000E12110B5044B0548002218604902012368
:104CE000FDF7E8FC10BDC046D43B00200040034067
:104CF00010B583070AD00300032102E001330B4201
:104D000005D01A78002AF9D1181A10BD03001968C5
:104D10000C4A0D4C8A188A4322420FD15968094A1D
:104D200004338A188A43224208D15968054A043359
:104D30008A188A432242F1D000E001331A78002A0F
:104D4000FBD1E1E7FFFEFEFE80808080F8B5C04623
:104D500001B40248844601BC604700BFED01002059
:104D600001B40248844601BC604700BF1502002020
:104D700001B40248844601BC604700BF79080020A6
:104D800001B40248844601BC604700BF6D0C00209E
:104D900001B40248844601BC604700BF51080020AE
:104DA00001B40248844601BC604700BF5D01002099
:104DB00001B40248844601BC604700BFB10A00202C
:104DC00001B40248844601BC604700BFC100002016
:104DD00001B40248844601BC604700BFF5090020C9
:104DE00001B40248844601BC604700BF910900201D
:104DF00001B40248844601BC604700BF9D09002001
:104E000001B40248844601BC604700BF710C002019
:104E100054696E79555342004D6173732053746F1A
:104E2000726167650000000054696E795553422035
:104E300044657669636500003132333435360000ED
:104E400054696E79555342204344430054696E7946
:104E5000555342204D534300090400001201000243
:104E6000EF020140FECA03400001010203010000FD
:104E700009026200030100A032080B0002020200D6
:104E800000090400000102020004052400200105BD
:104E90002401000104240202052406000107058103
:104EA0000308001009040100020A000000070502BF
:104EB00002400000070582024000000904020002CF
:104EC000080650050705030240000007058302405D
:104ED000000000004E6F207370696E6C6F636B731F
:104EE0002061726520617661696C61626C650000A9
:104EF000486172647761726520616C61726D202512
:104F00006420616C726561647920636C61696D65B0
:104F1000640000000A2A2A2A2050414E4943202AD0
:104F20002A2A0A000A000000486172642061737333
:104F3000657274006D697373696E6720646F756262
:104F40006C652066756E6374696F6E0052656C6582
:104F500061736500626F6F74325F7732357130381C
:104F600030000000312E352E31000000776176656B
:104F700073686172655F7270323034305F7A657267
:104F80006F0000007069636F5F6D73640000000064
:104F90004465632020342032303233000600525002
:104FA000BBFF3CB66C4F001006005250E182887F78
:104FB000544F001006005250D3F075424C4F001071
:104FC0000D0A0000556E68616E646C65642049527C
:104FD0005120307825780A006570202564202573DB
:104FE0002077617320616C726561647920617661FC
:104FF000696C61626C65000043616E277420636FA9
:105000006E74696E75652078666572206F6E2069B2
:105010006E61637469766520657020256420257350
:10502000000000006F757400696E0000062C00100F
:105030005A2D0010422D0010062C0010242D0010B7
:105040000C2D0010A82C0010522C0010462C001023
:10505000CC2F0010B22F0010FA2C0010E02F0010FF
:10506000FA2C00109A2F0010862F0010FA2C001036
:10507000722F0010482F0010FA2C0010643000101E
:10508000483000103C300010FA2C0010FA2C0010B0
:105090001E30001048300010FA2C0010FA2C0010BE
:1050A000FA2C0010FA2C0010FA2C0010FA2C001028
:1050B000FA2C0010FA2F001085380010F538001077
:1050C00021390010053A0010E93A001000000000F4
:1050D000C13D0010D53D0010E93D00104D3E0010CF
:1050E000893F00100000000090440010244200108E
:1050F00024420010184400102442001024420010E2
:1051000024420010244200102442001024420010C7
:1051100024420010244200102442001024420010B7
:1051200024420010244200102442001024420010A7
:10513000C2430010244200102442001024420010F8
:105140002442001024420010244200102442001087
:105150009C430010684300102442001024420010B9
:105160002442001024420010244200102442001067
:1051700024420010FA42001024420010A442001001
:0851800008005250120000006B
:10518800AC020010A0020010940200109C4F001006
:1051980088020010A84F0010B44F00108051001072
:1051A800F0B5C646150000B504001E000268EFF30E
:1051B800108172B61368002BFCD0BFF35F8F0423F5
:1051C800E356002B2DDB2268BFF35F8F00201060B1
:1051D80081F31088D0221206127852B290469A4271
:1051E80003D1002080BCB846F0BD00270BE023683F
:1051F800BFF35F8F1F6081F310882800310000F033
:1052080027FE0028EDD12268EFF3108172B61368EB
:10521800002BFCD0BFF35F8F23797F2BE7D9434660
:1052280002E0D0231B061B6823712368BFF35F8F3E
:1052380000221A6081F310880120D3E7F0B5C64632
:1052480000B50D00040000F0F3FDFA2206000F007F
:10525800002328000021920000F0DAFD36184F41A3
:10526800002F2CDBD0231B061B68002598460BE07B
:105278002368BFF35F8F1D6081F310883000390009
:1052880000F0E6FD002818D12268EFF3108172B60D
:105298001368002BFCD0BFF35F8F23797F2BE7D9EE
:1052A800434623712368BFF35F8F00221A6081F39E
:1052B8001088012080BCB846F0BD0020FAE701261E
:1052C800014F7642CEE7C046FFFFFF7F0268EFF34B
:1052D800108172B61368002BFCD0BFF35F8FFF23D9
:1052E80003710368BFF35F8F00221A6081F310888F
:1052F80040BF704700231C4A10B59360D3601B4A17
:1053080000219360D3601A4A1A489360D3601A4AFE
:105318009360D360194A9360D360194A9360D3604D
:10532800184A9360D360184A9360D360174A936011
:10533800D360174A9360D360164A9360D360164AC5
:105348009360D360154A9360D360154A9360D36025
:10535800144A9360D360F022920000F051FD124B82
:10536800124A1A6010BDC0460000105008001050C4
:1053780010001050E0360020180010502000105087
:1053880028001050300010503800105040001050C5
:105398004800105050001050580010506000105035
:1053A8006800105070001050A43A0020800110507E
:1053B800F0B55746DE464E464546E0B5234B87B026
:1053C8009F6D002F23D0224B002499460123984635
:1053D800204B01269A4604E001347600E4B2202CE2
:1053E80015D03E42F8D04B469E65434665086D0091
:1053F800A343ED186D015544280000F0A1FB0028D7
:105408000CD10134B743E4B27600002FE7D107B0DE
:10541800F0BCBB46B246A946A046F0BDAB78082210
:105428009B46EB8A002103A8019300F0E9FC0723BF
:10543800594602AA5371019B117203A801210593D1
:1054480000F0A6FB280000F013FBDAE7000011507B
:1054580000301150A03600209823D14A70B5D55895
:1054680080232C009B02102684B01C401D4278D05B
:10547800CC4BCD4C9A6ACD4B00261A603B23E35C9B
:10548800022B00D1D7E07B23E35C022B00D11AE288
:10549800BB23E35C022B00D103E2FB23E35C022B7A
:1054A80000D1ECE13C23FF33E35C022B00D1D1E1D6
:1054B8007C23FF33E35C022B00D1B6E1BC23FF332E
:1054C800E35C022B00D19BE1FC23FF33E35C022B5E
:1054D80000D14FE1B64BE35C022B00D136E1B54B6E
:1054E800E35C022B00D11DE1B34BE35C022B00D13E
:1054F80004E1B24BE35C022B00D1EBE0B04BE35C80
:10550800022B00D1D2E0AF4BE35C022B00D1B9E013
:10551800AD4BE35C022B00D19EE0AC4BE35C022B6D
:1055280000D1E2E1002E08D1A94B1B78002B04D151
:105538008021A84A90338902D15001AE984B0C22A1
:10554800002130009C6C00F05BFC03236405640DB3
:105558007370300002940121802400F019FB9E4EE4
:10556800A402EB0663D480235B021D4214D00122FF
:1055780023211C438C4B5A54DA70C023974ADB0012
:10558800019302AB03CA03C3012101A800F000FB89
:105598008022904B92021A6580235B011D422FD115
:1055A8008023DB011D421AD180231B021D4204D136
:1055B800AC4200D0B3E104B070BD01AE0C220021B2
:1055C80030001C4300F01CFC0523012173703000DF
:1055D80000F0DEFA80227F4B12011A65E8E701AE7F
:1055E8000C22002130001C4300F00AFC0423012196
:1055F8007370300000F0CCFA1022764B1A65D3E7AE
:1056080000221C43664B01AE1A60FFF773FE0C22A2
:105618000021300000F0F4FB0123012173703000F9
:1056280000F0B6FA80226B4B12031A65B8E7FFF751
:10563800BFFE340097E73833E65C002E00D122E73E
:105648000233E25C002A00D11DE700222000E25468
:10565800203000F03FFA16E7614BE35C002B00D1E5
:105668005BE7EF239B00E25C002A00D04FE1574B39
:10567800E35C022B00D060E75A4BE35C002B00D0C0
:1056880038E15AE7584BE35C002B00D140E7DF22B2
:105698009200A15C1E00002900D139E70023A35421
:1056A800D8239B00E01800F015FA31E74F4BE35C74
:1056B800002B00D127E7CF229200A15C1E00002911
:1056C80000D120E70023A354C8239B00E01800F072
:1056D80001FA18E7464BE35C002B00D10EE7BF2226
:1056E8009200A15C1E00002900D107E70023A35403
:1056F800B8239B00E01800F0EDF9FFE63D4BE35CB2
:10570800002B00D1F5E6AF229200A15C1E00002913
:1057180000D1EEE60023A354A8239B00E01800F074
:10572800D9F9E6E6344BE35C002B00D1DCE69F2296
:105738009200A15C1E00002900D1D5E60023A354E5
:1057480098239B00E01800F0C5F9CDE62B4BE35CED
:10575800002B00D1C3E68F229200A15C1E00002915
:1057680000D1BCE60023A35488239B00E01800F076
:10577800B1F9B4E6F933FF33E35C002B00D1A9E6B5
:10578800FE225200A15C1E00002900D1A2E62000E2
:105798000023E130A354FF3000F09CF99AE6C0469C
:1057A8000000115000400540A03600209836002027
:1057B8003B0200007B020000BB020000FB0200006D
:1057C8003B0300007B030000BB030000FB03000059
:1057D800DD3B002000301150100002000000105086
:1057E800BA030000FA0300007A0300003A0300003D
:1057F800FA020000BA0200007A0200003A02000031
:10580800B933FF33E35C002B00D15DE6DE225200A2
:10581800A15C1E00002900D156E620000023A1301B
:10582800A354FF3000F056F94EE67933FF33E35CBA
:10583800002B00D142E6BE225200A15C1E000029C6
:1058480000D13BE6200000236130A354FF3000F074
:1058580041F933E63933FF33E35C002B00D127E607
:105868009E225200A15C1E00002900D120E62000E3
:1058780000232130A354FF3000F02CF918E6F83348
:10588800E35C002B00D10DE6FC22A15C1E00002980
:1058980000D107E600232000A354E03000F01AF9F5
:1058A80000E6B833E35C002B00D1F6E5BC22A15C2E
:1058B8001E00002900D1F0E500232000A354A030E9
:1058C80000F008F9E9E57833E35C002B00D1DFE567
:1058D8007C22A15C1E00002900D1D9E5002320000C
:1058E800A354603000F0F6F8D2E50F4BE35C002BD0
:1058F80000D117E6FF239B00E25C002A00D11CE6DA
:105908000022E2541C3BE01800F0E4F815E60022FF
:10591800E254E8239B00E01800F0DCF8A7E6210039
:105928000248694000F09CFAFA030000C44F0010D6
:10593800084A0300126C0020920703D49A78D2090F
:10594800012A00D07047D87E023843425841C0B27D
:10595800F8E7C0460000115010B5FFF7E9FF00282E
:105968000CD00749074B8C46074A9B6A1268634468
:105978009B1A0020C6229A424041C0B210BDC046C0
:10598800E0FCFFFF0040054098360020F8B5028B88
:10599800838A04000F00161C9A4200D91E1C802519
:1059A800B6B29B1BE2789BB2ED00A3823543002A76
:1059B80002D09025AD01354301214A40E27062785A
:1059C800002A09D0002B02D18023DB011D43002FC0
:1059D80000D02D042800F8BDE368B8019C463200C9
:1059E8006044216900F02CFA23699C4680236644B0
:1059F8001B021D432661A38AE4E7C046836870B58D
:105A080004001D68002900D02D0C6378AD05AD0D8C
:105A1800002B09D1E38AEB18E382238BAB4201D92F
:105A28000023A382280070BDE36889019C462A00F0
:105A38002069614400F004FAE38AEB18E3822369E1
:105A48005B192361E9E7C04610B5040083680021AB
:105A58001B68FFF7D3FF63681B685B0002D5238BC5
:105A6800834200D010BD01212000FFF7C7FFF9E7EE
:105A780000238376436103617047C04610B583688D
:105A8800002901D01C682140002A11D08024E4009C
:105A9800114322420CD01A6822420BD10A4A0A400A
:105AA8001A60FFE7FFE7FFE7FFE7FFE7FFE7836825
:105AB800196010BD7F2281780448CB091140044A3F
:105AC8009B009A5800F0CCF9FFFBFFFFD84F00105D
